:020000040800F2
:1000000018090020C9010008D1010008D301000827
:10001000D5010008D7010008D90100080000000040
:10002000000000000000000000000000DB010008EC
:10003000DD01000800000000DF0100089D45000808
:10004000E3010008E3010008E3010008E301000800
:10005000E3010008E3010008E3010008F90A0008D1
:10006000E3010008E3010008E3010008E3010008E0
:10007000E3010008E3010008E3010008E3010008D0
:10008000E3010008E3010008E3010008E3010008C0
:10009000E3010008E3010008E3010008E3010008B0
:1000A000E3010008E3010008E3010008E3010008A0
:1000B000E3010008E3010008E3010008253000081F
:1000C000E3010008E3010008E3010008E301000880
:1000D000E3010008E3010008E3010008F54A000815
:1000E000E3010008E3010008E3010008E301000860
:1000F000E3010008E3010008E3010008E301000850
:10010000E3010008E3010008E3010008E30100083F
:10011000E3010008E3010008E3010008E30100082F
:10012000E3010008E3010008E3010008E30100081F
:10013000E3010008E3010008E3010008E30100080F
:10014000E3010008E3010008E3010008E3010008FF
:10015000E3010008E3010008E3010008E3010008EF
:10016000E3010008E3010008E3010008E3010008DF
:10017000E3010008E3010008E301000800000000BB
:10018000E3010008E3010008E3010008E3010008BF
:10019000E3010008E3010008E3010008E3010008AF
:1001A000E3010008E3010008E3010008E30100089F
:1001B000E3010008DFF80CD000F07AF800480047AF
:1001C000214B0008180900200648804706480047D0
:1001D000FEE7FEE7FEE7FEE7FEE7FEE7FEE7FEE7F7
:1001E000FEE7FEE775460008B50100082DE9F05F5F
:1001F0000546002092469B46884606468146402496
:100200001BE0284641464746224600F041F8534647
:100210005A46C01A914110D311461846224600F0A2
:1002200028F82D1A67EB01084F46224601200021CD
:1002300000F01FF817EB00094E41201EA4F1010445
:10024000DFDC484631462A464346BDE8F09F40EA97
:1002500001039B0703D009E008C9121F08C0042A44
:10026000FAD203E011F8013B00F8013B521EF9D22B
:100270007047202A04DB203A00FA02F10020704780
:100280009140C2F1200320FA03F3194390407047D4
:10029000202A04DB203A21FA02F00021704721FADB
:1002A00002F3D040C2F12002914008431946704742
:1002B000064C074D06E0E06840F0010394E80700B3
:1002C00098471034AC42F6D3FFF778FFC86A0008AD
:1002D000E86A00081CB509490024D1E90023CDE9EA
:1002E00000408868064C00EB800101EBC00104EB84
:1002F0008101C96D03F03CFB1CBD000024000020FF
:1003000050010020084B10B51C6801FB04009968DF
:1003100001EB810303EBC101044B03EB8101C96DC8
:1003200041F8202010BD00002400002050010020D2
:10033000012000F001B800002DE9F04F8FB0834696
:1003400046F6253600F050F900F0FAF85A4D5948B3
:100350002860284601F095F800247D204FF002091E
:100360000394CDE901094FF2244143F60450B1FB57
:10037000F0F04FF0010AC5E9020A01A9284601F090
:10038000C5F84E4D4FF4F0704FF44871BBF1000FBB
:100390007ED0C5E900104A48D5E9001C4FF0050899
:1003A000C0E900480462C46100F1100EC0F80C906E
:1003B00040F6FF7844628EE81201DFF8088146318A
:1003C000B8FBF6F8C0F82880DFF8FC800127B8FBFE
:1003D000F6F8C0F82C804FF2244801FB08F1B1FB7D
:1003E000F6F1C0E90C171022D102C0E910C11021AA
:1003F000C0E912144902016549104165491081653F
:100400004910C16549100166491041660F23C0E9D2
:100410000E320146284800F009FF232704970A20DE
:10042000CDE908400597069704A90797224800F0F0
:10043000C0FE214EA83EC6F814A0F761286800F15E
:1004400023020146726245303166F0626868706668
:10045000A6F1E800082101604FF4C0710161072195
:100460008462C16102F030F886F8344086F8354085
:1004700086F836401548346130601149304601F045
:1004800087FE304601F0DAFE0B4801F0EEF900E09D
:100490000DE000F03FF909480C3000F0D9F859465A
:1004A000002003F06FFE0FB00020BDE8F08FC5E91B
:1004B000000170E7006C0140F801002024000020DA
:1004C000A400002048E80100C86C2000006801403A
:1004D00010B504468EB01848002300930268CDE999
:1004E000012340680991CDE90303FF21CDE90513FC
:1004F0008DF830308DF831308DF832304FF4C061E6
:10050000CDE90A20079107210891224669460B4848
:1005100001F06BFE094904EB4400C43101EB800299
:100520004FF0FF335360044B0C3393604FF07F4226
:1005300041F820200EB010BD240000205001002002
:10054000284908B5086840F080600860086800F035
:100550008060009023482038026842F08062026088
:10056000026822F0806202601E4A143A136843F463
:1005700000031360126802F400020092194A343A30
:10058000136843F400031360136823F4000313603B
:100590000A6842F000620A60096801F00061009197
:1005A000016841F000610160016821F000610160B3
:1005B00000220321582001F01DFF582001F00EFFFA
:1005C000002203215A2001F015FF5A2001F006FFF6
:1005D000002203215C2001F00DFFBDE808405C20F3
:1005E00001F0FCBE44380240144810B5026886B0E1
:1005F000002142F0800202600068114C00F080008F
:100600000590802000901120CDE901010320039086
:100610006946204601F0CAFA00228021204601F0F6
:10062000B4FB142001F044F901228021204601F09E
:10063000ACFB0A2001F03CF906B010BD3038024096
:10064000001C02400149886070470000240000201F
:100650000449054A896801EB410102EB8101886088
:1006600070470000240000201402002070B586B0FE
:100670000446032828D81D4D1D4955F82400009034
:100680000120019002900320039034B1012C1DD071
:10069000022C1BD0032C08D120E0086840F0400059
:1006A0000860086800F040000590104E694610365A
:1006B00056F8240001F07AFA35F82400012281B2BC
:1006C00056F8240001F061FB06B070BD086840F0E8
:1006D00008000860086800F00800E5E7086840F4D2
:1006E00080600860086800F48060DDE70400002096
:1006F00030380240032809D80549054A31F820104E
:10070000103289B252F8200001F03BBB7047000064
:100710000400002070B51B4819490423016000F152
:100720003401022207248B60C1E90024C1E903429D
:100730004A618A610024446020218460C0E9033159
:10074000402141614FF4C071C0E906149102016279
:100750004900C0E90914214600F05EF8094909483A
:10076000343102F0A5FA084D10B10120287000E0E4
:100770002C7040F2695000F009F8287870BD000034
:10078000400100A0EC020020380000202DE9F843D1
:10079000204C0025012610270095C4E90067C4E914
:1007A000026581464FF6FF7821464246A1F150008E
:1007B00002F0B2FA012001F07BF80220C4E9000740
:1007C000C4E9026521464246A1F1500002F0A4FAB4
:1007D0000320C4E900070820C4E902052146424677
:1007E000A1F1500002F098FA4FF40C700090C4E9A7
:1007F00002600421C4E9001721464246A1F15000DD
:1008000002F08AFA4946A4F15000BDE8F84302F02C
:1008100072BA00003C03002030B587B005007DD0DF
:1008200055480024016841F0010101600068524907
:1008300000F0010008390590086840F48000086065
:10084000086800F480000590086840F00400086023
:10085000086800F004000590086840F0080008608F
:10086000086800F008000590086840F01000086073
:10087000086800F010000590086840F0200008604B
:10088000086800F020000590086840F0400008600B
:10089000086800F040000590086840F0800008609B
:1008A000086800F080000590086840F480700860D7
:1008B0000868012100F4807005900220CDE9010153
:1008C00003900C200091049069462C4801F06EF9C9
:1008D0004CF2037000906946294801F067F94FF621
:1008E000837000906946274801F060F94FF63F0099
:1008F00000906946244801F059F948F233100090FD
:100900006946224801F052F94FF60C700090694692
:100910001F4801F04BF940F2FF6000E02AE0009030
:1009200069461C4801F042F91B498020C1E9014099
:100930008000C86040000861800048618000C1E913
:100940000604C000C1E908040320C1E90A041348F1
:100950000C630860296308468D6300F0ABFA0E480B
:1009600000F0D4FA00220521382001F043FD3820A0
:1009700001F034FD07B030BD3838024000080240B5
:10098000000C024000100240001402400018024017
:10099000001C0240002002402C0200201064024093
:1009A000F0B50468059E656C46EA034305F04045D2
:1009B0001D4365640368DA634268B2F5403F02D0C4
:1009C0000068C160F0BD01F47F4201F47F0C8668CD
:1009D00001F07F4301F47F0701F47F45CCB242EA86
:1009E0000C02BEB1012E16D001F47F02D20CC1F36D
:1009F000C401022E11D0032E14D0190F3A0D2D0B65
:100A000023092C0144EA022242EA01321A43006817
:100A10008263F0BD1A432243F9E7AB0A5B0143EA64
:100A2000C22206E0DB0FEC0A640144EA822242EAB9
:100A3000C3320A43EBE7000001681823CAB2103A38
:100A4000B2FBF3F2054B6FF30901032A9B5CC3650C
:100A500000D9091D8165084670470000106900082B
:100A600010B5014600208B698A6A4FF0C07453B1FB
:100A7000B3F5005F15D072B1012A0CD0022A0AD05A
:100A8000032A09D104E01AB1012A06D0022A03D1AF
:100A9000C96AC90100D5012010BDC96AA142FAD0B6
:100AA00010BD002AF7D0012AF2D0022AF3D0032A7F
:100AB000F3D010BD10B542EA8111029C41EA032136
:100AC00041EA0441C16610BD1CB5012808D8487828
:100AD00000900B7815220021064800F097FE1CBDFF
:100AE0000A5CCDE90021034639220021014800F0CB
:100AF000C5FD1CBDF8010020022001F04BB830B547
:100B0000D1E901231A43D1E903352B431A434B6939
:100B10000C681A438B691A43D1E90735012C496ADD
:100B2000046807D01A432A436FF30E040A43224392
:100B300002600AE024F4F8442B4321430B4341684C
:100B400003606FF30E010A434260002030BD42692A
:100B500042EA4101416100207047F8B5144605465C
:100B6000D1E9000210438A686FF01F03C96803EBE4
:100B7000421242EA412108430090286101F00AF93B
:100B8000064609E0601C07D024B101F003F9801B80
:100B9000A04201D90320F8BDA8698006F2D4002044
:100BA000F8BD0000F0B56FF00F05D1E9003405EB9A
:100BB00004145B1E23432E018C682F0306EB0424D0
:100BC00023434FEA054C0C8A8E8ACD68097E4FF08C
:100BD0007F4E07EB04440CEB06560EEB0161012A35
:100BE0000CD082683F1107EB05352B432343334379
:100BF00002F070420B43134383600FE08768084A9A
:100C000017402A03A2F580523243C5683A43234372
:100C100005F070450B432B438260C3600020F0BD9C
:100C2000FF0F0FFF70B500EB011290F8383018324B
:100C3000012B20D0012580F83850022380F839306C
:100C400054680A2C19D0092C17D01389167B1B0461
:100C500043EA066323431C4CB1B10168CE692640C8
:100C60001E43CE6103681168196151680A291ED0BC
:100C700009291CD020E0022070BDD368168903F03A
:100C80007F4343EA0643E5E70668716A214019435A
:100C9000716203681168996151680A2901D00929B4
:100CA0000AD1D168026821F07F41916204E0D168E5
:100CB000026821F07F41116280F83950002180F8EC
:100CC0003810084670BD0000F0FFFC0070B504004D
:100CD00004D094F83900002510B106E0012070BD61
:100CE00084F83850204600F01FF8022084F83900BC
:100CF00020680168626821F4403111430160206876
:100D0000416BA26821F00701114341632068016C27
:100D1000E2686FF30D0111430164E563012084F87B
:100D20003900002070BD000008B5006806498842FF
:100D300008D10648016841F400010160006800F430
:100D40000000009008BD000000B0024030380240B2
:100D50002DE9F84300260446009600680D46006819
:100D60004FF00407C0074FF0030825D001F012F838
:100D700081461DE04068009010F0210F0FD00098D0
:100D8000800603D5E06B40F00200E0630098C007E6
:100D900003D0E06B40F00100E063212032E0681CEA
:100DA00006D0C5B300F0F6FFA0EB0900A8423CD87E
:100DB000206841688907DDD52068C169890602D4A9
:100DC000406A800640D500F0E5FF814638E0406883
:100DD000009010F0290F1FD00098000703D5E06B9A
:100DE00040F00400E0630098800603D5E06B40F01B
:100DF0000200E0630098C00703D0E06B40F0010000
:100E0000E06329202168886084F8397084F83860AC
:100E10000120BDE8F88308E0681C11D02DB100F076
:100E2000B9FFA0EB0900A8420AD954F83C0F40F0E2
:100E3000200044F8040984F8018026700320E8E7C4
:100E400020684168C906C2D5216812208860012047
:100E500084F8390084F838600020DAE738B50446B1
:100E6000049894F83850012D10D0012584F838509A
:100E7000022584F8395000902046FFF791FD206844
:100E8000016841F001010160002038BD022038BD39
:100E900090F83510022903D0802141650120704768
:100EA000052180F835100068016821F0010101601A
:100EB0000020704770B5040025D094F83500022852
:100EC00020D02068016821F0010101602068002520
:100ED000056020684560206885602068C5602068DE
:100EE00005612168212048612046FFF7A5FD94F89F
:100EF0005C203F2191408160656584F8355084F81D
:100F00003450002070BD012070BD00002DE9F0417B
:100F1000044600F03FFF06465CB1002584F83450DB
:100F2000022084F835002068016821F00101016089
:100F30000DE00120BDE8F08100F02CFF801B0528AA
:100F400005D920206065032084F83500F2E7206889
:100F50000068C007F0D12268116820480140D4E938
:100F600001031843D4E90336334318436369184334
:100F7000A3691843E3691843236A18430843616A65
:100F8000042903D1D4E90B131943084310602068E6
:100F90004069666A20F0070130460E4301270428A5
:100FA0000CD1A06A0643E06A40B12046FFF758FD25
:100FB00020B14020606584F83570BAE7206846614A
:100FC0002046FFF739FD94F85C203F219140816075
:100FD000656584F835700020ACE700003F8010F0B4
:100FE00030B5027C012A5DD0012202740368002220
:100FF000C3F8C4200368C3F8C8208161CB0706D0BA
:10100000036853F8C44F4FF6FF752C431C608B07E1
:1010100005D5036853F8C44F44F4F8141C604B071B
:1010200005D5036853F8C84F44F001041C600B0752
:1010300005D5036853F8C84F44F002041C60CB0682
:1010400005D5036853F8C84F44F00C041C608B06A8
:1010500005D5036853F8C84F44F010041C604B06D4
:1010600005D5036853F8C84F44F020041C600B06F4
:1010700005D5036853F8C84F44F040041C60CB0505
:1010800005D5036853F8C84F44F080041C608905F7
:1010900005D5016851F8C83F43F4F8530B6002745A
:1010A000002030BD022030BD027C012A0ED001227A
:1010B00002740268D36A23F01F03D3620268D36A02
:1010C0000B43D36200210174084670470220704729
:1010D00010B5027C012A6AD001220274026893686A
:1010E00023F47F439360026893680C6843EA042307
:1010F00093600268936F9BB293670268936F8C88CA
:1011000043EA044393670268936F6FF30F03936797
:101110000268936F8C68234393670268D36F6FF301
:101120000F03D3670268D36FCC682343D367026889
:1011300052F8803F6FF30F031360026852F8803F4C
:101140000C6923431360026852F8843F6FF30F0366
:101150001360026852F8843F4C69234313600268AD
:1011600052F8843F23F080731360026852F8843F82
:101170008C6923431360026852F8883F6FF30F03B2
:101180001360026852F8883FCC69234313600268F9
:1011900052F88C3F6FF30F031360026852F88C3FD4
:1011A000096A0B43136000210174084610BD022038
:1011B00010BD30B5027C012A36D001220274D1E97B
:1011C0000023934200D91A46036853F8984F04F05D
:1011D000FC241C60036853F8984F42EA024214430F
:1011E0001C60026852F89C3F03F4004313600368DC
:1011F00053F89C2F0C690D7A22438C89240444EA0D
:10120000056422431A60026852F8A43F23F47F4326
:101210001360026852F8A43F496943EA0121116052
:1012200000210174084630BD022030BD30B5027C7B
:10123000012A6AD0012202740268536B23F0010371
:1012400053630268D2F8003423F00103C2F800347B
:101250000268936B23F0030393630268936BCC687B
:10126000234393630268D36B6FF30D03D363026868
:10127000D36B0C692343D3630268136C6FF30C03C5
:1012800013640268136C4C69234313640268536C43
:101290006FF30C0353640268536C8C6923435364EB
:1012A0000268D36823F00303D3600268D3680C6834
:1012B0002343D3600268536923F007035361036833
:1012C0005A694C6A2243D1E907542C4322435A619C
:1012D0000268136923F00F031361026813694C68F5
:1012E000234313610268D2F8003423F00E03C2F8DE
:1012F00000340268D2F800344C6843EA4403C2F870
:1013000000344A68032A02D00BE0022030BD026894
:10131000136923F480731361026813698C68234393
:1013200013610268936C6FF30B0393640268936C10
:101330008C6A234393640268D36C6FF30B03D3640A
:101340000268D36CCC6A2343D3640268136D6FF3D5
:101350000E0313650268136D0C6B2343136502685B
:10136000536D6FF3090353650268536D4C6B234350
:1013700053650268936D6FF3090393650268936D7B
:101380008C6B234393650268D36D6FF30903D365B8
:101390000268D36DCC6B2343D3650268136E6FF381
:1013A0000D0313660268136E0C6C23431366026808
:1013B000936B23F4004393630268936B4C6C234359
:1013C00093630268936923F47F03936102689369CE
:1013D000B1F8484043EA044393610268936923F0FB
:1013E000FF03936102689369CC6C234393610268A5
:1013F000936B23F4005393630268936B0C6D234348
:1014000093630268936B23F4805393630268936B36
:101410004C6D234393630268936B23F400639363DF
:101420000268936B8C6D234393630268936B23F480
:10143000806393630268936BCC6D2343936302686C
:10144000936B23F4007393630268936B0C6E2343D6
:1014500093630268936B23F4807393630268936BC6
:101460004C6E234393630268936B23F4804393632E
:101470000268936B896E0B439363002101740846E5
:1014800030BD38B504003FD00320607420680025CB
:10149000D0F8041421F00801C0F804142068D0F832
:1014A000041401F008010091416821F0010141603C
:1014B0002068416801F001010091D0F8A01021F0EE
:1014C0000601C0F8A0102068D0F8301421F0010106
:1014D000C0F830142068D0F8301401F001010091F8
:1014E000D0F8301421F08071C0F830142068D0F8A2
:1014F000300400F080700090204600F021F9656112
:1015000065742574002038BD012038BD2DE9F843ED
:101510000D46040002D0607C18B105E00120BDE852
:10152000F883204600F020F90320607420684FF013
:101530000008D0F8301441F08071C0F830142068F1
:10154000D0F8300400F08070009000F023FC0646D4
:101550004FF47A7705E000BF00F01CFC801BB84216
:101560002FD82068D0F80C04C004F5D52068D0F836
:101570003014404A1140C0F830142068D0F83014BC
:101580002A682B8941EA82016A68D20242EA034250
:101590001143C0F830142068D0F8301441F0010134
:1015A000C0F830142068D0F8300400F0010000903A
:1015B00000F0F0FB064606E000F0ECFB801BB842B2
:1015C00001D90320ABE72068D0F80C04C005F3D59F
:1015D000206850F8A01F41F006010160206850F813
:1015E000941F21F003010160206850F8941F626885
:1015F000114341F001010160206850F8A41F21F05F
:1016000003010160206850F8A41FE26811430160E3
:101610002068816821F0FF01816020688168A268EC
:1016200011438160686800B9012013494FF4FA52F0
:101630004843297A884029685143B0FBF1F021687A
:10164000D1F8182422F03F02C1F818242168D1F8FB
:1016500018240243C1F818242168C1F8C480216805
:10166000C1F8C880C4F81880C4F8148001206074E0
:10167000002054E70386FCFF00093D002DE9FF4FE1
:1016800081B00446DDE90EA6007C1D469346012884
:1016900009D00120207400F07DFB07464FF00008C0
:1016A0004FF47A790DE0022005B0BDE8F08F00BF5D
:1016B00000F070FBC01B484503D984F8108003205C
:1016C000F2E72068406FC007F2D05046032D02D2E7
:1016D0002B46002108E0032300210827725C07EB5A
:1016E000C107BA401043491C9942F6D321680867E4
:1016F000EA1A13E0042A01D2134600E00423002171
:10170000084606E0375C4FEAC00C07FA0CF739438D
:10171000401C9842F6D320680167D21A1E44002A62
:10172000E8D16D1CC5F307200090EBB25A46206843
:101730000299FFF7BFF984F810800020B4E7000099
:1017400000680649884208D10548016821F0006117
:1017500001600421034800F041B97047006C01406A
:10176000443802400024024000B500680D4987B0AB
:10177000884215D10C480021026842F000620260E4
:10178000006800F000600590042000900220CDE980
:1017900001010D20CDE903106946044800F006FA66
:1017A00007B000BD006C01404438024000240240F4
:1017B000027C012A0ED0012202740268136B23F00E
:1017C000030313630268136B0B431363002101745B
:1017D0000846704702207047027C012A13D001227C
:1017E00002740268D2F81C3423F0C063C2F81C34BF
:1017F0000268D2F81C3443EA4161C2F81C1400218B
:101800000174084670470220704700002DE9F84F28
:101810000446007CDDF82880994692468B460128D4
:1018200008D00120207400F0B5FA054600264FF4D8
:101830007A770BE00220BDE8F88F00BF00F0AAFA2B
:10184000401BB84202D926740320F4E72068406F99
:10185000C007F3D0CDF800804B4652465946206869
:10186000FFF728F926740020E5E708B5017C012977
:101870001BD001210174016800224B6843F0010371
:101880004B6001684B6803F001030093D1F8043406
:1018900043F00803C1F804340168D1F8041401F0DE
:1018A000080100910274002008BD022008BD00005C
:1018B00070B5044600F06EFA0546601C02D004487C
:1018C0000078044400F066FA401BA042FAD370BDD1
:1018D000580000202DE9F041364886B00168002903
:1018E00065D14FF00108C0F800803348002401683A
:1018F00041F0010101600068022500F0010005903F
:101900004FF68370CDE9000502AA03260C2782E872
:10191000D0006946294800F049F92020CDE90005AA
:1019200002AA694682E8D000254800F03FF948F253
:101930003310CDE9000502AA694682E8D0002148AB
:1019400000F034F94CF20370CDE9000502AA6946B3
:1019500082E8D0001C4800F029F940F2FF60CDE990
:10196000000502AA694682E8D000184800F01EF976
:101970004FF63F00CDE9000502AA694682E8D00093
:10198000134800F013F94FF64C70CDE9000502AA98
:10199000694682E8D0000F4800F008F902AA6946BB
:1019A00082E8D000CDE900850B4800F0FFF806B0D2
:1019B000BDE8F0815000002038380240001002409D
:1019C0000004024000180240000C024000200240C7
:1019D00000140240001C0240000802402DE9F04FB4
:1019E000DFF838B100224FF001094FF00F0A00BFB5
:1019F00009FA02F401EA0403A3427DD10668570004
:101A00000325BD40AE430660D60800EB8606D6F837
:101A100020C057074FEAD7680AFA08F72CEA070CE4
:101A2000C6F820C08668AE4386604668A643466016
:101A3000C468AC43C46022F003055D44D5F808785F
:101A40009407260F0AFA06F4DFF8D4C02740604551
:101A500002D14FF0000C40E0DFF8C8C0604502D171
:101A60004FF0010C39E0DFF8C0C0604502D14FF003
:101A7000020C32E0DFF8B4C0604502D14FF0030C35
:101A80002BE0DFF8ACC0604502D14FF0040C24E03D
:101A9000DFF8A0C0604502D14FF0050C1DE0DFF873
:101AA00098C0604502D14FF0060C16E0DFF88CC0FC
:101AB000604502D14FF0070C0FE0DFF884C06045AD
:101AC00002D14FF0080C08E0DFF878C0604502D181
:101AD0004FF0090C01E04FF00A0C0CFA06FCBC4573
:101AE00016D1D5F80868A643C5F80868164C2568CD
:101AF0009D432560241D00E00AE025689D43256084
:101B0000241D25689D432560241D25689D4325606F
:101B1000521C102AFFF46CAFBDE8F08F003001407A
:101B2000000002400004024000080240000C024095
:101B3000001002400014024000180240001C024045
:101B40000020024000240240003C014010B5022861
:101B500011D10E4C0E48616871B101290BD10022E0
:101B6000082100F012F900F015F9E060A168401AB0
:101B700020610220606010BD0122082100F005F9FB
:101B800000F008F9A0600120F4E700003C0000200C
:101B900000080240044910B50A68024202D00860F9
:101BA000FFF7D4FF10BD0000143C01402DE9F84FB1
:101BB000DFF890B100224FF001084FF0030A4FF018
:101BC0000F090BF1040E00BF0B6808FA02F4234062
:101BD000A3426ED14D68022D01D0122D0ED1D50831
:101BE00000EB850CDCF820505607F70E09FA07F6D3
:101BF000B5430E69BE402E43CCF820600668550000
:101C00000F790AFA05FC07F0030726EA0C06AF4035
:101C1000374307604E68012E05D0022E03D0112EE7
:101C200001D0122E0ED18768CE6827EA0C07AE408D
:101C30003E4386604668A6430C79C4F30014944082
:101C400034434460C4688E6824EA0C04AE402643E2
:101C5000C6604C68E4006FD53B4C256845F4804570
:101C60002560246822F0030504F480440094374C76
:101C70002E19D6F8084895072F0F09FA07F5AC4337
:101C8000334DA84201D100252EE0324DA84201D1AA
:101C9000012529E0304DA84201D1022524E02F4D35
:101CA000A84201D103251FE02D4DA84202D10425F1
:101CB0001AE041E02B4DA84201D1052514E02A4D40
:101CC000A84201D106250FE0284DA84201D10725E1
:101CD0000AE0274DA84201D1082505E0254DA8427C
:101CE00001D1092500E00A25BD402543C6F8085862
:101CF000DBF800405D464E689C43F60300D51C436C
:101D00002C60DEF8004075464E689C43B60300D553
:101D10001C432C600B4D08352C684E689C43F60222
:101D200000D51C432C60074D0C352C684E689C4335
:101D3000B60200D51C432C60521C102AFFF444AF9D
:101D4000BDE8F88F003C01404438024000300140BB
:101D5000000002400004024000080240000C024063
:101D6000001002400014024000180240001C024013
:101D700000200240002402400069084000D00120F9
:101D8000704742694A40426170470AB181617047B9
:101D90000904FBE7014880687047000058000020F4
:101DA000704770472DE9F05F02680446D2F818804A
:101DB0005569566890F83E007449DFF8D0A1DFF805
:101DC000CCB1DFF8CC918F1C0AF17E0A0BF13E0BEF
:101DD000102812D0402810D00D425BD0B00559D544
:101DE000936920460021DB435B0700D501219269FE
:101DF000D243120648D5828947E015F0011F05D06D
:101E0000B00503D5204601F0ADFB10E05F48801D12
:101E1000054205D0B00503D5606CC0B2106106E084
:101E20000D4204D0B00502D5204601F021FB18EA8E
:101E3000090F14D015EA0A0F08D0700506D53D42E7
:101E400006D12046BDE8F05F01F08EBA3D421FD0BA
:101E5000B0051DD52046BDE8F05F01F044BA15EA93
:101E60000B0F08D0700506D53D4206D12046BDE8CF
:101E7000F05F01F0F6B93D420AD0B00508D5204622
:101E8000BDE8F05F01F08EB9028B92B2FFF789FFD7
:101E9000BDE8F09F3D480E30054206D0B00504D5A0
:101EA0002046BDE8F05F01F047BC18EA090F4FF08B
:101EB000280134D015EA0A0F23D0700521D53D4200
:101EC00021D194F83D302046628D002AE0D0426A4C
:101ED000541C4462046812782261428D521E42856D
:101EE000428D002AD4D1292BD2D10268536823F421
:101EF000806353602122026380F83D1000F005F9F1
:101F0000C6E73D42C4D0B005C2D5608D0028BFD021
:101F1000606A411C616221680078086131E015EA5D
:101F20000B0F22D0700520D53D4220D194F83D30D2
:101F30002046648D002CABD01469426A551C456262
:101F40001470428D521E4285428D002AA0D12A2B48
:101F50009ED10268536823F4806353602222026397
:101F600080F83D1000F0D0F892E73D4290D0B005E7
:101F70008ED5608D00288BD01169606A421C626228
:101F80000170608D401E608582E700000200010044
:101F9000040010007047000070B5040004D094F8ED
:101FA0003D00002510B106E0012070BD84F83C50D2
:101FB000204600F07BF8242084F83D00206801686A
:101FC00021F00101016000F091FC33492268B0FB6F
:101FD000F1F15160314A6368934206D94FF4967328
:101FE00059434FF47A73B1FBF3F12368491C19622A
:101FF000616891420BD84900B0FBF1F2C2F30B02C9
:10200000042A01D2042019E0B0FBF1F016E0A36825
:102010009BB301EBC10202EB0112B0FBF2F242F4FE
:102020008042120530D04BB301EBC10202EB01112B
:10203000B0FBF1F040F4804040F400402168C861FA
:10204000D4E90701084321680860D4E90310084374
:1020500021688860D4E9050108432168C8602068C8
:10206000016841F0010101602564202084F83D00F1
:10207000256384F83E50002070BD00E006E001EBCF
:102080004102B0FBF2F2CCE70120D7E701EB4101BE
:10209000B0FBF1F0D0E7000040420F00A086010045
:1020A00070477047704770477047000000B5006880
:1020B000124987B088421FD14FF44070009012201F
:1020C00001900120029003200390042004906946AF
:1020D0000B48FFF76BFD0B48016841F400110160EC
:1020E0000068002200F40010059011461F2000F047
:1020F00081F91F2000F072F907B000BD00540040C4
:10210000000402404038024070477047024881682E
:102110000278114481607047580000200B4810B5C8
:10212000016841F400710160016841F4806101605F
:10213000016841F480710160032000F07BF9002008
:1021400000F006F800F008F9002010BD003C024045
:1021500070B50D4D04464FF47A712878B1FBF0F05C
:102160000A490968B1FBF0F000F0FBFD48B9102CFA
:1021700007D200222146501E00F03CF900206C607E
:1021800070BD012070BD00005800002064000020D8
:102190004A6A0AB14FF00052C2600A6AFAB10022DC
:1021A0008260CA69F2B1002242604A6B521E8261AB
:1021B000D1E90D231A44521E0262D1E90D231344C2
:1021C0000A6C521E1A448262D1E90D231A440B6C28
:1021D000C96B19441144491E0163002070474FF038
:1021E0008042DDE74FF00042DEE72DE9F041044692
:1021F00090F8A00016460F4601281DD0012584F84E
:10220000A050022084F8A10006EB860000EBC60077
:1022100004EB800034223830FEF719F83246394694
:10222000204601F0D5FB2068456284F8A1500020CB
:1022300084F8A000BDE8F0810220FBE770B504003F
:1022400004D094F8A100002510B106E0012070BD73
:1022500084F8A050204600F06BF8022084F8A1001A
:102260002068816921F070418161D4E9010108434E
:10227000D4E903121143084321688A691043886135
:1022800021688A68294802408A60A18A0A04216874
:102290008B68A669334313438B602168CA68024088
:1022A000CA60A18B0B042168CA68266A32431A43AC
:1022B000CA6021680A6902400A61A18C22680B0485
:1022C0001169A66A31431943116121684A690240C4
:1022D0004A61A08D010420684269236B1A430A43B6
:1022E000426194F835002168020294F83600CB6A06
:1022F00003F07F43CB622168CB6A94F8346042EAF2
:10230000004033430343CB622068416B41F0060138
:1023100041632068816941F001018161C4F8A450E2
:10232000012084F8A100002070BD000000F800F03A
:1023300008B500680649884208D10648016841F09E
:1023400080610160006800F08060009008BD0000BE
:1023500000680140443802401F4808B5016841F454
:1023600080410160006800F4804000901A48001F1E
:10237000016841F080510160006800F080500090D9
:10238000032000F057F8002211466FF00B0000F018
:1023900031F8002211466FF00A0000F02BF80022FD
:1023A00011466FF0090000F025F800221146501F79
:1023B00000F020F800221146101F00F01BF8002248
:1023C0001146901E00F016F80022BDE808401146A4
:1023D000501E00F00FB800004438024000F01F0209
:1023E000012191404009800000F1E020C0F8001177
:1023F00070470000F0B40E4B1B680C46C3F3022379
:10240000C3F10705042D00D90425191D072901D2A0
:10241000002300E0DB1E012606FA05F1491E2140DB
:1024200099409E40761E16403143F0BC01F098BEA4
:102430000CED00E0064900F0070208684FF6FF03C4
:10244000184040EA0220034A104308607047000029
:102450000CED00E00000FA052DE9F843174801688B
:1024600041F0805101600068154F00F08050012656
:1024700000903E64FFF78EFC05464FF47A78114CCD
:1024800005E000BFFFF786FC401B40450DD86068A3
:10249000C003F7D57E64FFF77DFC0546464607E09E
:1024A000FFF778FC401BB04202D90320BDE8F88357
:1024B00060688003F4D50020F8E70000403802404F
:1024C00000000E42007000402DE9F84F04460078ED
:1024D000AD4D000605D52868616B20F0006008430B
:1024E00028602088C00505D52868A16B20F08050A1
:1024F000084328602068DFF894A2A54FC1074FF079
:1025000001084FF0000603D1810701D4400648D5E9
:10251000CAF86860FFF73EFC814605E0FFF73AFC29
:10252000A0EB090002287DD838680001F6D4207895
:10253000C107984805D06168227A890141EA027191
:1025400001602178890711D501686268237B9201B7
:10255000C1F3027142EA036242EA01710160296833
:10256000226A21F01F01521E114329602178490679
:1025700008D56168227B890141EA0261227A41EA39
:1025800002710160CAF86880FFF704FC814605E02B
:10259000FFF700FCA0EB09000228C4D8386800014E
:1025A000F6D520684FF0006B410706D4010704D42C
:1025B000000676D5606B58457DD1CAF87060FFF78C
:1025C000E9FB814606E000BFFFF7E4FBA0EB090052
:1025D000022827D83868C0438000F5D520786F4995
:1025E00042076D4821D502680368C2F30142521CBC
:1025F00022F00042D4F810C001EB024242EA8C12F1
:1026000094F818C0C3F3027342EA0C6242EA037200
:1026100002602A68636A6FF0FF0C22F4F8520CEB38
:10262000032300E087E01A432A60227812071AD5B4
:102630000268C2F30142521C530002685B08D4F8DE
:1026400010C001EB0343C2F3036243EA8C1343EA75
:102650000262237F42EA037202602A68A36A22F4BC
:1026600040321A432A602278120614D5626B5A450A
:1026700011D102680368C2F303626569C3F3027390
:102680006D0801EB0541256941EA851141EA0261C6
:1026900041EA03710160CAF87080FFF77BFB0546D1
:1026A00005E008E0FFF776FB401B022843D83868B6
:1026B000C0438000F6D42078800653D5344840309B
:1026C000016841F0805101600068354D00F0805094
:1026D0000090286840F480702860FFF75BFB074695
:1026E00005E000BFFFF756FBC01B022823D828686F
:1026F000C005F7D5274D143D286810F4407020D050
:10270000A18D01F4407181421BD02868254920F435
:102710004070C1F800800E6028602868C00710D0A3
:10272000FFF738FB064641F2883707E0FFF732FB38
:10273000801BB84202D90320BDE8F88F28688007C3
:10274000F4D5E16A1248C1F301220830032A13D0FC
:10275000016821F4F81101602868A18DC1F30B0113
:10276000084328602078C00604D50F4994F830004B
:10277000C1F8E0010020DFE702680C4B22F4F812F8
:1027800019400A430260E7E78C38024000004742E4
:102790000038024084380240883802400000FFFFC1
:1027A00000700040400E474200104742FFFCFF0F00
:1027B0002DE9F0470E46050065D0DFF81481D8F802
:1027C0000000F7B200F00F00B04207D288F80070A6
:1027D000D8F8000000F00F00B04254D128683D4CFA
:1027E000810712D5400703D5206840F4E0502060EF
:1027F0002878000703D5206840F4604020602068F6
:10280000A96820F0F000084320602878C0072DD088
:10281000304968680839012812D0022813D00328EB
:1028200011D00968890700292DDA216821F00301F8
:1028300001432160FFF7AEFA814641F2883A0EE08B
:1028400009688903EFE709688901ECE7FFF7A2FA55
:10285000A0EB0901514502D90320BDE8F0872068AB
:10286000696800F00C00B0EB810FEFD1D8F80010D0
:10287000404601F00F01B14207D90770006800F02F
:102880000F00B04201D00120E7E72878400705D5C6
:102890002068E96820F4E0500843206028780007A9
:1028A00006D52068296920F4604040EAC100206014
:1028B00000F03CF82168084AC1F30311515CC8409C
:1028C000064908600020FFF743FC0020C5E7000030
:1028D000003C0240083802401869000864000020EB
:1028E0000148006870470000640000200448054962
:1028F00000680968044AC1F38221515CC8407047EE
:10290000640000200838024028690008044805498E
:1029100000680968044AC1F34231515CC8407047FD
:10292000640000200838024028690008154810B5E6
:10293000006810F00C02144813D04110042A0FD084
:10294000082A0ED10F4C241F2268236802F03F0290
:102950005B0207D52068C0F38810A0FB010106E0E8
:10296000084610BD2168C1F38811A1FB00010023B6
:10297000FDF73CFC2168C1F30141491C4900B0FB53
:10298000F1F010BD083802400024F4002DE9F84FA2
:1029900005460078DFF800B3C04CC0074AD0DBF82A
:1029A00000105846C1F38101012908D00068C0F326
:1029B000810002280AD1201D0068400206D5206847
:1029C000800337D56868002872D033E06868B0F5B6
:1029D000803F10D0B0F5A02F206810D020F48030B8
:1029E0002060206820F4802020606868A8B1FFF78C
:1029F000D1F906460DE0206840F48030F4E740F459
:102A000080202060F7E700BFFFF7C4F9801B64282F
:102A10006FD820688003F7D50CE0FFF7BBF90646B6
:102A200005E000BFFFF7B6F9801B6428F0D82068E6
:102A30008003F7D42878DFF8688280074FF0000918
:102A400040D5DBF80010584611F00C0F09D0006893
:102A5000C0F3810002280BD18F48001F006840029C
:102A600006D42068800715D5E868012820D111E038
:102A7000E868B8B10120C8F80000FFF78BF90646F6
:102A800005E000BFFFF786F9801B0228C0D8206848
:102A90008007F7D52068296920F0F80040EAC100D6
:102AA00020600FE0C8F80090FFF774F9064606E0D2
:102AB000EFE000BFFFF76EF9801B022819D82068ED
:102AC0008007F7D42878000722D5734E75486969C6
:102AD0006C3679B101210160FFF75CF9074604E02B
:102AE000FFF758F9C01B022803D830688007F7D5D4
:102AF0000EE089E0C0F80090FFF74CF9074604E0CB
:102B0000FFF748F9C01B02287ED830688007F7D449
:102B10002878400768D5DFF880A100270AF1380A35
:102B2000DAF80000C0000BD4DAF8001041F0805150
:102B3000CAF80010DAF80000012700F08050009079
:102B4000594E3068C00510D4306840F48070306051
:102B5000FFF720F9009005E0FFF71CF90099401AF3
:102B6000022851D83068C005F6D54B4EA8686836A3
:102B700001280FD00528306810D020F00100306007
:102B8000306820F004003060A868B8B1FFF702F99F
:102B900000900FE0306840F00100F4E740F00400DE
:102BA0003060F7E7FFF7F6F80099411A41F28830F4
:102BB000814266D830688007F4D50EE0FFF7EAF866
:102BC000009007E0FFF7E6F80099411A41F28830DB
:102BD000814256D830688007F4D42FB1DAF800105B
:102BE00021F08051CAF80010A869D0B3DBF80010BA
:102BF000C1F3810102294CD00228484607D0C8F809
:102C00006000FFF7C7F800E03BE005463CE04746C0
:102C1000C8F86000FFF7BEF8064604E0FFF7BAF810
:102C2000801B02282DD820688001F7D4F5E9070120
:102C30000843E9681D4A490802EB0141AA6841EAD4
:102C400082110843297C40EA0160297D40EA017134
:102C50001148001F016001203866FFF79BF8054608
:102C600005E014E0FFF796F8401B022809D8206819
:102C70008001F7D50BE000BFFFF78CF8401B02285E
:102C800002D90320BDE8F88F20688001F4D4002029
:102C9000F8E70120F6E7000008380240003802405B
:102CA00000004742800E4742007000400000FFFFD6
:102CB00070B50D46040003D094F82C0010B107E065
:102CC000012070BD002084F82D00204600F011F88E
:102CD000022084F82C00211D2068FDF710FFD4E9A4
:102CE00000022946FDF75EFF012084F82C00002039
:102CF00070BDFEF7EFBD10B5044690F82C00022819
:102D000009D0022084F82C002068FDF720FF012064
:102D100084F82C00002010BD70B5044690F82C00FB
:102D20000D4602280DD0022084F82C002068FDF703
:102D300014FF2868022805D05FF0010084F82C00F9
:102D4000002070BD0520F9E74FF0E0210428086954
:102D500003D020F004000861704740F00400FAE757
:102D6000704710B5401EB0F1807F01D3012010BD27
:102D70004FF0E02460610F21601701F0F1F90020AD
:102D8000A06107202061002010BD10B5FFF7E8FF0B
:102D900010BD704770B5026804461068D168536969
:102DA00010F00F0F50D003F0010501F49076354379
:102DB0005DD0C20705D0CA0503D5E26B42F001021F
:102DC000E263420705D5DA0703D0E26B42F0020264
:102DD000E263820705D5DA0703D0E26B42F0040212
:102DE000E263020705D5DA0703D0E26B42F008027E
:102DF000E263E26B002A33D0800604D5880602D550
:102E0000204601F077FC20684069E16BC0F3801038
:102E1000090700D428B3204601F05EFC2068416910
:102E200049061AD5416921F040014161606BA0B1AA
:102E30001B490165606BFEF72BF8002810D0606B12
:102E4000016DBDE870400847830610D58B060ED58E
:102E50002046BDE8704001F04DBC2046FFF799FFC9
:102E600070BD2046FFF795FF0020E06370BD0306AC
:102E700006D50B0604D52046BDE8704001F0D6BD4E
:102E80004006F3D54806F1D5D168204621F040012F
:102E9000D160202184F8391000F0C2F870BD000024
:102EA000C946000870B5040004D094F83900002524
:102EB00010B106E0012070BD84F83850204600F0C3
:102EC00023F8242084F839002068C16821F40051D7
:102ED000C160204601F054FC2068016921F4904152
:102EE00001612068416921F02A0141612068C168BF
:102EF00041F40051C160E563202084F8390084F872
:102F00003A00002070BD000000B50068124987B08B
:102F100088421FD11148016841F480210160006896
:102F2000694600F4802005904FF440600090022034
:102F3000019001200290032003900720049008488C
:102F4000FEF734FE002211462720FFF753FA272010
:102F5000FFF744FA07B000BD004800404038024087
:102F60000004024070472DE9F843044690F8390008
:102F70001F4616460D46202850D1A5B19EB194F8A3
:102F8000380001284AD0012084F838004FF00008AA
:102F9000C4F83C80212084F83900FEF7FBFEA684AB
:102FA0008146E68426E00120BDE8F883E08C401EDF
:102FB000E084A0684B46B0F5805F4FF000024FF010
:102FC00080012046009703D001F061FDE8B90DE0D3
:102FD00001F05DFDC8B928882168C0F30800486089
:102FE000206908B16D1C05E0AD1C03E0216815F8EF
:102FF000010B4860E08C0028D8D14B4600224021CC
:103000002046009701F043FD08B10320CCE72020C3
:1030100084F8390084F838800020C5E70220C3E72F
:10302000704700000148FEF7BDBE0000A803002065
:1030300010B5806B01680A6822F480620A60002182
:103040004185426B1165826B116590F83D302022FD
:10305000602B80F83D2080F83E1007D001680A6898
:1030600022F001020A60FEF795FF10BD01640168BD
:103070000A6822F001020A60FEF792FE10BD00000D
:1030800070B590F83D1004460025202600682929D7
:103090002DD02A292BD094F83D10602904D0416806
:1030A000090501D484F83D60256384F83E50016829
:1030B00021F40061016020684168090537D5416845
:1030C00021F400614160606B90F835203349012A9A
:1030D00012D00165606BFDF7DBFE38B32068016834
:1030E00021F00101016084F83D60606B1CE0256304
:1030F000282184F83D10DAE7A06B0165A06BFDF78D
:10310000C7FE98B120684169C943490604D40169E2
:10311000606A421C626201702068016821F001014E
:10312000016084F83D60A06B016D88470FE094F862
:103130003D1060291DD04169C943490604D4016985
:10314000606A421C626201702046FEF723FF94F819
:103150003D0028280CD1206C400709D51048E062BA
:10316000256384F83D6084F83E502046FEF798FFC2
:1031700070BD84F83D6025644169C943490604D4A3
:103180000169606A421C626201702068016821F076
:10319000010101602046FEF703FED8E73130000848
:1031A0000000FFFF10B5C26A438D0168042B06D0F2
:1031B000438D032B08D0438D022B19D00EE04A68B3
:1031C00022F480624A6008E04A6822F480624A6021
:1031D00001680A6822F480620A6001680A69416A2B
:1031E0004B1C43620A70418D491E4185002010BD71
:1031F000022A2AD0012A28D00A6842F400720A6002
:1032000001680A69416A4B1C43620A70418D491E7C
:10321000418501680A69416A4B1C43620A70418D0D
:10322000491E418501684A6822F440724A602021A3
:1032300080F83D100021016390F83E2080F83E1098
:10324000402A0BD0FEF72DFFD0E70A6822F48062F7
:103250000A6001680A6842F48072D0E7FEF723FF33
:10326000C4E710B590F83D10222937D1418D0329CC
:1032700011D901680A69416A4B1C43620A70418D89
:10328000491E4185418D032928D10068416821F4F8
:103290008061416022E0012900D0F9B901680A6823
:1032A00022F480620A6001684A6822F4E0624A609F
:1032B00001680A69416A4B1C43620A70418D491ECC
:1032C0004185202180F83D100021016390F83E20C7
:1032D00080F83E10402A03D0FEF7E3FE002010BD28
:1032E000FEF7E1FEFAE710B5C26A90F83D10212919
:1032F00021D1418D49B1416A4A1C42620268097874
:103300001161418D491E418515E020230021042AC9
:1033100013D0082A11D012F5803F0ED002685468ED
:1033200024F4E06454601122026380F83E1080F8B7
:103330003D30FEF7B7FE002010BD0268546824F44B
:10334000E06454600268146844F40074146001631B
:1033500080F83D3090F83E2080F83E10402AE8D1B9
:10336000FEF7A2FEE7E7000010B590F83D1090F8D8
:103370003E30C26A048D24B1212934D0402B30D094
:1033800074E02129FAD120230021042A13D0082A2D
:1033900011D012F5803F0ED00268546824F4E06426
:1033A00054601122026380F83E1080F83D3000BF67
:1033B000FEF778FE5AE00268546824F4E064546032
:1033C0000268146844F400741460016380F83D30AE
:1033D00090F83E2080F83E10402AE9D1FEF764FEC6
:1033E00044E0222942D1418D21B190F83E1040297C
:1033F00006D032E00068416821F48061416035E028
:10340000016D31B1016D012911D0016D022915D075
:103410002CE0C16C0129816C02D0C1F3072108E0C6
:103420000268C9B21161016D891C01651EE0816CE1
:10343000C9B202681161016D491CF6E790F83D10B0
:10344000222904D090F83D10212906D00EE0006812
:10345000016841F48071016008E0416A4A1C4262DF
:10346000026809781161418D491E4185002010BD17
:1034700078B590F83E50C26A036B90F83D60002426
:103480000168222E06D1066D0EB9402D02D0056DC1
:1034900025B107E048698869009058E00569B5F5ED
:1034A000404F08D0458D55B3458D012D0ED0428D2E
:1034B000022A37D04DE04A698A6900920A6842F4CC
:1034C00080720A60016D491C016540E012F5803F81
:1034D00009D0042A20D0082A1ED0122B1CD0C26A80
:1034E000022A08D113E00A6822F480620A600168A7
:1034F0004A68120503D50A6822F480620AE04A6924
:103500008A6900920A6842F400720A601EE00A6842
:1035100042F480620A6015E00A6822F480620A6060
:103520000168ECE7C26A022A13D00A6822F48062BA
:103530000A6001680A6842F400620A6001684A6829
:1035400012050AD401684A6989690091046500205E
:1035500078BD0A6842F48062EFE74A6842F480521C
:103560004A60EFE790F83E10402909D00169B1F5B3
:10357000804F10D0016D99B1016D012915D01CE06B
:10358000016D19B9416C01F0FE0114E0416CC9B242
:1035900041F001010FE090F83D102129F6D1F1E74B
:1035A000416CF02201F4407103E0416CF12201F41E
:1035B000407142EAD11100680161002070470000AB
:1035C0002DE9F0471C4616460D46814600F022F9CB
:1035D000002820D0204600F07DF800F073F9B8B143
:1035E000304600F077F800F06DF900F043F900F094
:1035F00011F900280FD0641CE0B200F06BF800F065
:1036000061F9DFF8C8A0324E4FF40048002850D1CD
:1036100000F030F90020BDE8F087002401221021DD
:103620005046FEF7B2FB07276006040E0022414613
:103630003046FEF7AAFB00F095F9012241463046DC
:10364000FEF7A3FB00F08EF910215046FEF794FB25
:1036500008B144F001047F1EFFB2E5D200224746C4
:1036600041463046FEF791FB89F80040012D4FF0AE
:1036700000023946304622D0FEF787FB00F072F98F
:10368000002210215046FEF780FB00F06BF901226A
:1036900039463046FEF779FB00F064F900223946DE
:1036A0003046FEF772FB00F05DF96D1E09F101096D
:1036B000ADB2002DB1D100F0DDF80120ABE7FEF78F
:1036C00064FB00F04FF90122DBE70000000002403C
:1036D000000402402DE9F04108240546DFF850803F
:1036E0002603144F18E000BFFEF74FFB00F03AF935
:1036F000280601D5012200E0002210214046FEF7F5
:1037000044FB6806050E00F02DF9012231463846CB
:10371000FEF73BFB00F026F9641EE4B24FF0000216
:1037200031463846E0D2BDE8F041FEF72EBB00003E
:10373000000002400004024038B590F83D200168C6
:103740004B6823F4E0634B60036800215C690094DC
:103750001C6844F001041C6003681C6824F4806445
:103760001C6003685C6824050BD590F83D40222C52
:103770002BD090F83D402A2C27D0446B24686468F5
:103780004485448DE4B15C69E443640707D41C6953
:10379000436A5D1C45621C70438D5B1E4385036854
:1037A0005C69E443640607D41C69436A5D1C456296
:1037B0001C70438D5B1E4385036C43F0040303645C
:1037C000036C23B1FFF75CFC1FE0846BD6E720237A
:1037D000282A09D02A2A07D0292A05D0046B222CAE
:1037E0000CD0222A0AD010E0094AC262016380F894
:1037F0003D3080F83E10FEF753FC06E0016380F890
:103800003D3080F83E10FEF77FFC002038BD000000
:103810000000FFFF10B5154C012210212046FEF7D5
:10382000B4FA0122D1031248FEF7AFFA00F09AF879
:1038300010212046FEF7A0FA00280CD0002210210B
:103840002046FEF7A2FA00F08DF810212046FEF780
:1038500093FA08B1002010BD002210212046FEF787
:1038600094FA00F07FF8012010BD00000000024033
:103870000004024070B5114D4FF40044002221466F
:103880002846FEF782FA00F06DF80D4E0022102156
:103890003046FEF77AFA00F065F801222146284604
:1038A000FEF773FA00F05EF8012210213046FEF7B1
:1038B0006CFABDE8704000F055B80000000402400A
:1038C0000000024070B5154C4FF400450022294617
:1038D0002046FEF75AFA00F045F8114E0122102159
:1038E0003046FEF752FA00F03DF801222946204604
:1038F000FEF74BFA00F036F810213046FEF73CFA9E
:1039000000284FF000022946204603D0FEF73DFA7A
:10391000002070BDFEF739FA012070BD000402409E
:103920000000024070B516460D460446FFF772FFD0
:10393000002812D03046FFF7CDFEFFF7C3FF68B175
:10394000E0B2FFF7C7FEFFF7BDFF2846FFF7C2FE54
:10395000FFF7B8FFFFF78EFF012070BDFFF78AFF6A
:10396000002070BD6420401E10F0FF00FBD17047A6
:103970002DE9F8430E460746DDE9081812481546BA
:103980004FF4403242600022C0E902210F491C4638
:103990000160FDF79BF9002814D139460A48FDF76C
:1039A00041F900280ED12B46324641460648009484
:1039B000FDF754FA002805D1BDE8F8430A21024872
:1039C000FDF7C6B9BDE8F8831001002000B0024041
:1039D000F0B503688C88DD68C5F30B452C442504DD
:1039E000882404EBC2141E5906F470461E51036865
:1039F0000F68DE68C6F30B46761C3E442E431E510C
:103A000004688B89E568C5F30A052B441D048C23E3
:103A100003EBC213E65806F47046E65004688F685C
:103A2000E668C6F30A06761C3E442E43E65094230D
:103A3000046803EBC213E55825F00705E550056857
:103A40000C69EC5091F831300C7E1F0226069C2444
:103A5000056804EBC21491F8323055F804C04FF0F9
:103A6000000C45F804C091F8305046EA03433D434A
:103A70001D4303681D519823046803EBC213E558E6
:103A800025F0FF05E55005684C69EC50A02304685B
:103A900003EBC213E55840F20776B543E550D1E990
:103AA00007452C430568EC50AC23046803EBC213B4
:103AB000E55844F803C005684C6AEC500B698BB3B9
:103AC000012B32D0042B32D0022B30D0032B2ED03E
:103AD000072B2CD00123B024056804EBC2142E5907
:103AE00006F0E0262E51D1E90065AD1B0E8D5D4339
:103AF0005E43ED1C45EA064305682B51B423046878
:103B000003EBC213E5586FF30A05E5500468C96A70
:103B1000E1500068842101EBC211425842F00102D9
:103B20004250F0BDFFE70423D5E70323D3E7022388
:103B3000D1E700000C4810B50A490160002141603E
:103B40008160C1608162C16201634163FDF7BEF8BB
:103B500000B1FEE701210448FDF764F8002800D019
:103B6000FEE710BD00B002404C03002070B53D4898
:103B70003B49AEB00024042580E83200C4603E20FA
:103B80000126CDE92A062AA92C943648FDF7BEFC69
:103B900000B1FEE7CDE91B641D941E941F94209490
:103BA000219422941BA92F482394FDF791FA00B188
:103BB000FEE71C202490212025900F20269019201C
:103BC000CDE9270424A927482994FDF7F2FA00B18A
:103BD000FEE704212348FDF767FA00B1FEE742F251
:103BE00010712048FDF7F8FD00B1FEE700211D48E7
:103BF000FDF7F6F900B1FEE7009401940294CDE9D7
:103C0000034605A94FF4207081E8310002200A2103
:103C10000890CDE9094109210B9140F256310C91F0
:103C2000CDE90D500F904FF4F070CDE910041294CF
:103C3000139414941594169417941894199469462F
:103C400008481A94FDF7F2FA00B1FEE70021054892
:103C5000FDF7AEFD002800D0FEE72EB070BD0000DD
:103C6000006C01408C03002000B5124887B0104959
:103C7000016001210022C0E901120421C16010216C
:103C80004023C0E904138023C0E906320262426285
:103C90008262009101910291039104910591069134
:103CA0006946FFF705F8002800D0FEE707B000BD21
:103CB000400100A0E40400202DE9F04FDB4887B06C
:103CC0000024016841F010010160016801F0100159
:103CD0000591016841F040010160016801F0400177
:103CE0000591016841F002010160016801F00201E3
:103CF0000591016841F004010160016801F00401CF
:103D00000591016841F001010160016801F00101C4
:103D10000591016841F008010160016801F00801A6
:103D20000591016841F480710160016801F48071BE
:103D30000591016841F020010160016801F0200156
:103D40000591016841F480610160016801F48061BE
:103D50000591016841F080010160016801F0800176
:103D60000591016841F4007101600068B04F00F4F2
:103D70000070059000220C213846FEF706F800225C
:103D80003021AC48FEF701F800220821AA48FDF7CF
:103D9000FCFF00224021A948FDF7F7FF00223C214B
:103DA000A748FDF7F2FF002248F20501A548FDF7FC
:103DB000ECFF00221821A448FDF7E7FF4FF0300880
:103DC0000225CDF80080CDE901540620CDE903405D
:103DD00069463846FDF7EAFE4FF00C090126CDF89A
:103DE0000090CDE90164694638460394FDF7DEFE94
:103DF0004FF48440CDE900050320CDE902400820BE
:103E0000049069468D48FDF7D1FE08200090CDE969
:103E100001540620CDE9034069468A48FDF7C6FEF5
:103E20004FF4F850CDE900050320CDE90240694682
:103E3000CDF810908248FDF7B9FE43F60440CDE975
:103E4000000469467D480294FDF7B0FE8020009092
:103E50007E48CDE9010469467A48FDF7A7FE0320B4
:103E60004FF0400ACDE90240CDE900A54FF00A0B22
:103E70006946CDF810B07348FDF798FECDF800A064
:103E8000CDE901540620CDE9034069466948FDF7B4
:103E90008DFE4FF4E050CDE900050320CDE902404E
:103EA0006946CDF810B06848FDF780FE1127CDF8BF
:103EB0000080CDE9017469465E480394FDF776FE03
:103EC00008200090CDE9017469465B480394FDF732
:103ED0006DFE0420CDE900050320CDE902406946CE
:103EE000CDF810905348FDF761FE2802CDE900059A
:103EF000694602945448FDF759FE1220CDF800801F
:103F0000CDE901060320039004200490694650483F
:103F1000FDF74CFE80200090CDE901540620CDE94C
:103F2000034069464548FDF741FECDF800A0CDE9C4
:103F30000174694641480394FDF738FE4FF49860D8
:103F4000CDE900050320CDE902400920DFF8048116
:103F5000049069464046FDF729FE4FF44070CDE9D4
:103F600000050320CDE902406946CDF810B0404677
:103F7000FDF71CFE3C20CDE9000669463048CDE93E
:103F80000245FDF713FE05200090CDE90164694666
:103F90002C480394FDF70AFE28030090CDE9015454
:103FA00069462448CDE90345FDF700FE2020009036
:103FB0002648CDE9010469462748FDF7F7FDC620EC
:103FC000CDE90004694620480294FDF7EFFD10207A
:103FD000CDE90007CDE9026569461B48FDF7E6FD1E
:103FE00008200090CDE90164694617480394FDF765
:103FF000DDFD1A480095CDE9010469461148FDF739
:10400000D5FDA803CDE90007CDE9026569460D4855
:10401000FDF7CCFD002211460720FEF7EBF9072043
:10402000FEF7DCF907B0BDE8F08F00003038024041
:1040300000100240000C024000280240001802401C
:10404000000802400004024000000240000011107D
:10405000001C024000140240002402400000211015
:104060000B4810B5094901600A49416000214FF42D
:1040700080428160C0E9031241618161C1610162D6
:10408000FDF78AFF002800D0FEE710BD0054004075
:10409000A8030020A086010070B530489AB02E49D0
:1040A0000024C0E9001484600721C460C0E9044111
:1040B000032181610E210525C0E9071540F28E21FB
:1040C000416240F2E51181624FF42571C16240F214
:1040D000E711016380F8344080F8354080F83640BD
:1040E000FEF7ACF800B1FEE7019402944FF480664D
:1040F000CDE90646039404940094CDE908548DF864
:10410000304005948DF831400A940B948DF832407C
:10411000002269461148FEF768F800B1FEE70D94E9
:104120000E940F94109411941294CDE91346CDE996
:1041300015548DF864408DF86540179418948DF8E7
:10414000664001220DA90548FEF74FF8002800D06F
:10415000FEE71AB070BD000000680140FC030020BB
:104160000907090E002806DA00F00F0000F1E02030
:1041700080F8141D704700F1E02080F800147047AB
:10418000FDF796BB70B50C460546FE490020FCF7CE
:104190009BFCFC4903206F31FCF796FCF949002099
:1041A000891CFCF791FCF74902206631FCF78CFC76
:1041B000F4490020891CFCF787FCF2490020091D06
:1041C000FCF782FC0A20FFF7DBFFEE490020891D87
:1041D000FCF77AFCEB4900200831FCF775FC0A205B
:1041E000FFF7CEFFE74900200A31FCF76DFCE549F7
:1041F00000200C31FCF768FCE24900200E31FCF78E
:1042000063FCE04900201031FCF75EFCDD49002032
:104210001231FCF759FCDB4900201431FCF754FC47
:10422000D8490020FCF750FCD64900201631FCF795
:104230004BFCD44900201831FCF746FCD149002042
:104240001A31FCF741FCCF4900201C31FCF73CFC43
:10425000CC4900201E31FCF737FCCA490020203130
:10426000FCF732FCC74900202231FCF72DFCC54980
:1042700000202431FCF728FCC24900201031FCF753
:1042800023FCC0490020FCF71FFCBE490220693115
:10429000FCF71AFCBB4900202631FCF715FCB94994
:1042A00000202831FCF710FCB64900202A31FCF729
:1042B0000BFCB44900202C31FCF706FCB14900206E
:1042C0002E31FCF701FCAF4900203031FCF7FCFB3C
:1042D000AC4900201831FCF7F7FBAA490020323125
:1042E000FCF7F2FBA74900201C31FCF7EDFBA549C8
:1042F00000203431FCF7E8FBA24900203631FCF7FE
:10430000E3FBA04902206C31FCF7DEFB9D49002055
:10431000891CFCF7D9FB9B4906208131FCF7D4FBB3
:10432000984900203831FCF7CFFB96490E20AA317E
:10433000FCF7CAFB934900203A31FCF7C5FB9149D1
:104340000E20B931FCF7C0FB8E4900203C31FCF750
:10435000BBFB8C490A20C831FCF7B6FB8949002019
:104360003E31FCF7B1FB874900205A31FCF7ACFB2A
:1043700084490020891CFCF7A7FB82490A20D3311D
:10438000FCF7A2FB7F4900204031FCF79DFB7D49F3
:104390000F20DE31FCF798FB7A4900203831FCF71A
:1043A00093FB78490F20EE31FCF78EFB7549002016
:1043B0003A31FCF789FB73490A20FE31FCF784FB94
:1043C000704900203C31FCF77FFB6F490F20FCF760
:1043D0007BFB6C4900203E31FCF776FB6A490F20DD
:1043E0001031FCF771FB674900204231FCF76CFB90
:1043F00065490A202031FCF767FB624900204431FF
:10440000FCF762FB60490A202B31FCF75DFB5D493C
:104410000020891CFCF758FB5B490A203631FCF769
:1044200053FB584900204031FCF74EFB56490F2002
:104430004131FCF749FB534900203831FCF744FB7C
:1044400051490F205131FCF73FFB4E4900203A31D2
:10445000FCF73AFB4C490A206131FCF735FB49492E
:1044600000203C31FCF730FB47490F206C31FCF752
:104470002BFB444900203E31FCF726FB42490F202C
:104480007C31FCF721FB3F4900201831FCF71CFB75
:104490003C4900205C31FCF717FB3A4900205E31B3
:1044A000FCF712FB374900206031FCF70DFB354962
:1044B00000206231FCF708FB324900206431FCF730
:1044C00003FB30490020FCF7FFFA2E49032073312B
:1044D000FCF7FAFA2B490020FCF7F6FA29490020EC
:1044E000FCF7F2FA284910208139FCF7EDFA25494A
:1044F0000020FCF7E9FA244910207039FCF7E4FAAF
:10450000204900204631FCF7DFFA7820FFF738FE1B
:1045100025B1022D07D11B49483101E019494A3123
:104520000020FCF7D1FA012C0ED1164900204C31A5
:10453000FCF7CAFA134904207731FCF7C5FA114990
:1045400004207C31FCF7C0FA0E4900204E31FCF704
:10455000BBFA0C4900205031FCF7B6FA094900209B
:104560005231FCF7B1FA074900205431FCF7ACFA9C
:10457000044900205631FCF7A7FA02490020FCF755
:10458000A3FA03E030690008396A000802490020F4
:10459000FCF79AFA002070BD8869000810B5FDF795
:1045A000B5FDFEF7F2FB02480168491C016010BD31
:1045B0003C00002070B52D48A2B00025016841F0F4
:1045C00080510160006800F0805021902848016807
:1045D00041F4404101600068022400F44040219011
:1045E00001200090000401908001CDE906400826DA
:1045F00008964FF4B470CDE909040420CDE90B040A
:104600006846FEF7C3F900B1FEE7FDF725FF00B1EC
:10461000FEE71CA90F2081E831004FF4A0501F9045
:104620004FF48050209005211CA8FEF7C1F800B17E
:10463000FEE7C0200D961190179514940DA8FDF774
:1046400043FF00B1FEE7FEF74BF94FF47A71B0FB80
:10465000F1F0FEF786FB0420FEF776FB0022114600
:10466000501EFDF7C7FE22B070BD0000403802406A
:10467000007000401048016841F4700101600F486B
:10468000016841F0010101600C4A0021083211600B
:1046900002680B4B1A400260031D0A4A1A60026846
:1046A00022F48022026005480C300160024958065D
:1046B000803908607047000088ED00E00038024053
:1046C000FFFFF6FE1030002410B5806B0021C1857D
:1046D000C184FEF75EFB10BD0168CA6822F49072C7
:1046E000CA6001684A6922F001024A61202180F80B
:1046F0003A10704710B590F83A10222901D00220E4
:1047000010BD8168B1F5805F11D001690029016891
:104710001FD0496801F07F03816A4A1C82620B70D6
:10472000C18D491E0904090CC18518D026E0026913
:10473000816A002A0268526805D0D2B20A80816A72
:10474000491C8162ECE7C2F308020A80816A891C75
:10475000F7E74A68816A4B1C83620A70E0E70168E8
:10476000CA6822F49072CA6001684A6922F00102A4
:104770004A61202180F83A10FEF7F4FB002010BDBA
:104780002DE9F04104460068016921F44052E168D6
:10479000114301612168C86849F20C6290432369A2
:1047A000A268E5691A4363692B431A430243CA604E
:1047B0002168486920F44072A06910434861E169AA
:1047C0006425B1F5004F9748974A21684FF03208A9
:1047D0003FD0914201D081427CD1FEF797F800EBA7
:1047E000C00101EB001061688900B0FBF1F6FEF733
:1047F0008DF800EBC00101EB001061688900B0FB8F
:10480000F1F0B0FBF5F06FF01801484306EB8001C2
:1048100008EB0110B0FBF5F000F0F006FEF776F8BB
:1048200000EBC00101EB001061688900B0FBF1F002
:10483000B0FBF5F006EB0016FEF768F800EBC001E0
:1048400001EB001061688900B0FBF1F7FEF75EF83C
:10485000D2E0914201D081423DD1FEF757F800EB02
:10486000C00101EB001061684900B0FBF1F0B0FB42
:10487000F5F00601FEF74AF800EBC00101EB00106D
:1048800061684900B0FBF1F7FEF740F800EBC001AA
:1048900001EB001061684900B0FBF1F0B0FBF5F0EE
:1048A0006FF01801484307EB800108EBC100B0FB33
:1048B000F5F000F0F80006EB4006FEF727F800EBF5
:1048C000C00101EB001061684900B0FBF1F7FEF791
:1048D0001DF83CE055E0FEF709F800EBC00101EBE4
:1048E000001061684900B0FBF1F0B0FBF5F0060183
:1048F000FDF7FCFF00EBC00101EB0010616849000F
:10490000B0FBF1F7FDF7F2FF00EBC00101EB001087
:1049100061684900B0FBF1F0B0FBF5F06FF01801F1
:10492000484307EB800108EBC100B0FBF5F000F055
:10493000F80006EB4006FDF7D9FF00EBC00101EBE4
:10494000001061684900B0FBF1F7FDF7CFFF00EB05
:10495000C00101EB001061684900B0FBF1F0B0FB51
:10496000F5F06FF01801484307EB800108EBC10038
:10497000B0FBF5F000F00700216830448860BDE826
:10498000F081FDF7B3FF00EBC00101EB001061689F
:104990008900B0FBF1F6FDF7A9FF00EBC00101EBC8
:1049A000001061688900B0FBF1F0B0FBF5F06FF02A
:1049B0001801484306EB800108EB0110B0FBF5F04D
:1049C00000F0F006FDF792FF00EBC00101EB0010D4
:1049D00061688900B0FBF1F0B0FBF5F006EB001662
:1049E000FDF784FF00EBC00101EB00106168890056
:1049F000B0FBF1F7FDF77AFF00EBC00101EB00100F
:104A000061688900B0FBF1F0B0FBF5F06FF01801C0
:104A1000484307EB800108EB0110B0FBF5F000F014
:104A20000F00A9E7001401400010014090F8391070
:104A3000212901D0022070478168B1F5805F016AA9
:104A40000BD04A1C0262026809785160C18C491E71
:104A50000904090CC1840ED017E009880268C1F36B
:104A60000801516001690029016A02D0491C0162F4
:104A7000ECE7891CFBE70168CA6822F08002CA6083
:104A80000068C16841F04001C160002070472DE915
:104A9000F041984617460E460446069D1DE0681CE8
:104AA0001BD02DB1FDF776F9A0EB0800A84214D970
:104AB0002068C16821F4D071C1602068416921F08B
:104AC00001014161202084F8390084F83A00002077
:104AD00084F838000320BDE8F0812068006836EAD9
:104AE000000004D00020B842D9D00020F3E7012014
:104AF000F9E700000148FEF74DB90000A4040020CA
:104B000002E008C8121F08C1002AFAD17047704796
:104B1000002001E001C1121F002AFBD170470000F4
:104B20001CB5FDF7FBFA0020FBF7A0FD0120FBF709
:104B30009DFD0220FBF79AFD0320FBF797FDFFF791
:104B400039FDBDA000680090FFF7B6F8BC48BB492E
:104B50000C2201604FF4E131416000218160C160AD
:104B6000C0E904128161C161FEF79CF900B1FEE762
:104B7000FFF776FAFFF790FAFEF7DCFFFEF7F6FF95
:104B8000FFF772F8422280211220FEF7CBFE32207E
:104B9000FCF78EFE422214211220FEF7C3FE3220C3
:104BA000FCF786FE4223122201216846FEF708FD2B
:104BB0009DF80000302101EB10118DF8041000F079
:104BC0000F0030308DF805004FF6FF7423460222A7
:104BD00001A99B48FEF7C7F92346042299A19848EA
:104BE000FEF7C1F9FBF7A4FBA1070020FBF770FC5F
:104BF0000020FBF727FD4FF0FF30FBF76BFBDFF8E2
:104C000048B2012210215C465846FDF7BEF8012249
:104C100020212046FDF7B9F8DFF830A28C48406823
:104C200002287DD1002220215C465846FDF7ADF8D0
:104C3000002204212046FDF7A8F80221491C64291E
:104C4000FCDB012204212046FDF79FF801222021F0
:104C50002046FDF79AF8002204212046FDF795F83A
:104C60000221491C6429FCDB012204212046FDF7B6
:104C70008CF80221491C6429FCDB0025A346002492
:104C80004FF07F47002204215846FDF77EF8714817
:104C90004FF000090169C1F380020169DAF80030C0
:104CA00001F0400142EA5112514603F4006342EA26
:104CB0005322036903F0040342EA4302036903F049
:104CC000400342EA9302DAF8003003F4006342EA58
:104CD0009312DAF8003003F4806342EA1316026993
:104CE00002F0800216430A68006902F0200200F018
:104CF0000200096842EA401001F4805140EA51186C
:104D0000012204215846FDF740F80220401C642887
:104D1000FCDB002204215846FDF737F8504600E03E
:104D20007DE0DAF80010C1F380234A490A6902F0F5
:104D3000800243EA9212DAF8003003F4006342EA98
:104D40005322DAF8003003F4806342EAD3120B698D
:104D500003F0800342EAD302036842EA0802D1F872
:104D600010C0C3F340330CF0020C43EA0C03D0F83C
:104D700000C00CF4805C43EA9C23D0F800C00CF423
:104D8000005C43EA9C23D1F810C000680CF0020CD0
:104D900043EACC0300F4805043EAD0130869096960
:104DA00000F0040043EA001001F0400140EA410035
:104DB000310440EA090041EA02210143394341F04C
:104DC0007F42A9B2A0B2FBF79DFA01220421584606
:104DD000FCF7DBFF641CB4F5A07FFFF653AF6D1C3E
:104DE000F02DFFF64CAF002210215C465846FCF730
:104DF000CCFF002220212046FCF7C7FF0221491CDE
:104E00006429FCDB012210212046FCF7BEFF0122B1
:104E100020212046FCF7B9FF0D48002141600C48D5
:104E20000168B1F5FA7F7FF6F9AE0021016008460E
:104E3000FBF760FCF2E6000044AA000000480040D6
:104E4000A40400200D0A00000008024010180240CF
:104E50003C000020000002400000000000000000B4
:104E60000000000000000000000000000000000042
:104E70000000000000000000000000000000000032
:104E80000000000000000000000000000000000022
:104E90000000000000000000000000000000000012
:104EA0000000000000000380000380000380000376
:104EB00080000380000380000380000380000380E3
:104EC000000100000100000000000000000380005D
:104ED000038000000000000000000000000000004F
:104EE00000000000000000000000000000000000C2
:104EF000000E70000E70000E7000042000042000F0
:104F00000420000420000000000000000000000059
:104F10000000000000000000000000000000000091
:104F20000000000000000000000000000000000081
:104F30000000000000000660000660000660000639
:104F400060000660003FF8003FF8000660000CC0FB
:104F5000003FF8003FF8000CC0000CC0000CC0007F
:104F60000CC0000CC00000000000000000000000A9
:104F7000000000000000000000000001800001802F
:104F80000007B0000FF0001870001870001C00003F
:104F90000F800007E00000F0001830001C30001CFB
:104FA00070001FE0001BC000018000018000018034
:104FB0000001800000000000000000000000000070
:104FC0000000000000000780000FC0001CE0001877
:104FD00060001860001CE0000FF80007E0001FF000
:104FE0000007380006180006180007380003F00014
:104FF00001E00000000000000000000000000000D0
:1050000000000000000000000000000000000000A0
:105010000000000003F00007F0000C60000C00002E
:105020000C00000600000700000F9C001DFC00188B
:10503000F0001870000FFC0007DC0000000000000A
:105040000000000000000000000000000000000060
:105050000000000000000000000380000380000347
:1050600080000100000100000100000100000000BC
:105070000000000000000000000000000000000030
:105080000000000000000000000000000000000020
:1050900000000000000000000000000000000018F8
:1050A0000000380000700000F00000E00000E000A8
:1050B00001C00001C00001C00001C00001C000012A
:1050C000C00000E00000E000007000007000003848
:1050D00000001800000000000000000000000000B8
:1050E0000000000000001800001C00000E00000E70
:1050F0000000070000070000038000038000038019
:105100000003800003800003800007000007000008
:105110000F00000E00001C0000180000000000003E
:1051200000000000000000000000000000000180FE
:10513000000180000180001DB8001FF80007E0009A
:1051400003C00003C000066000066000000000000D
:10515000000000000000000000000000000000004F
:10516000000000000000000000000000000000003F
:1051700000000000000000000000000001800001AD
:1051800080000180000180000180003FFC003FFCA6
:10519000000180000180000180000180000180008A
:1051A00000000000000000000000000000000000FF
:1051B00000000000000000000000000000000000EF
:1051C00000000000000000000000000000000000DF
:1051D00000000000000000000000000000000000CF
:1051E000000000E00000C00001C00001800001805C
:1051F00000030000030000000000000000000000A9
:10520000000000000000000000000000000000009E
:1052100000000000000000000000001FF8001FF860
:10522000000000000000000000000000000000007E
:10523000000000000000000000000000000000006E
:10524000000000000000000000000000000000005E
:10525000000000000000000000000000000000004E
:10526000000000000000000000000000000000003E
:10527000000003C00003C00003C0000000000000E5
:10528000000000000000000000000000000000001E
:105290000018000018000038000030000070000006
:1052A000600000600000C00000C0000180000180BC
:1052B000000300000300000600000600000E0000CE
:1052C0000C00001C00001800001800000000000086
:1052D000000000000000000000000000000003C00B
:1052E0000007E0000C30000C3000181800181800FF
:1052F0001818001818001818001818001818000CB2
:1053000030000C300007E00003C000000000000087
:10531000000000000000000000000000000000008D
:105320000000000000000080000780001F80001DBA
:105330008000018000018000018000018000018068
:10534000000180000180000180000180001FF80042
:105350001FF8000000000000000000000000000036
:10536000000000000000000000000000000007C076
:10537000001FF0003830003018003018000018000E
:1053800000300000600001C0000380000600000C37
:1053900000001800003FF8003FF800000000000087
:1053A00000000000000000000000000000000000FD
:1053B00000000000000003C0000FE0000C700000BF
:1053C000300000300000600003C00003E000007007
:1053D000000018000018000018001838001FF00026
:1053E0000FC00000000000000000000000000000EE
:1053F000000000000000000000000000000000E0CD
:105400000001E00001E000036000066000066000AB
:105410000C60000C60001860003060003FF8003F36
:10542000F80000600003F80003F80000000000002E
:10543000000000000000000000000000000000006C
:105440000000000000001FF0001FF000180000180E
:1054500000001800001BC0001FF0001C30000018E6
:10546000000018000018000018003030003FF00065
:105470000FC000000000000000000000000000005D
:10548000000000000000000000000000000000F824
:105490000003F8000700000E00000C0000180000D8
:1054A0001BC0001FF0001C3000181800181800184E
:1054B00018000C38000FF00003E0000000000000AE
:1054C00000000000000000000000000000000000DC
:1054D0000000000000001FF8001FF8001818001856
:1054E00038000030000030000070000060000060F4
:1054F0000000E00000C00000C00001C0000180000A
:10550000018000000000000000000000000000001A
:10551000000000000000000000000000000007E0A4
:10552000000FF0001C38001818001818000C30008C
:1055300007E00007E0000C300018180018180018E9
:1055400018001C38000FF00007E000000000000009
:10555000000000000000000000000000000000004B
:1055600000000000000007C0000FF0001C30001811
:1055700018001818001818000C38000FF80003D88D
:105580000000180000300000700000E0001FC000A4
:105590001F000000000000000000000000000000EC
:1055A00000000000000000000000000000000000FB
:1055B0000000000000000000000003C00003C00065
:1055C00003C0000000000000000000000000000018
:1055D000000003C00003C00003C000000000000082
:1055E00000000000000000000000000000000000BB
:1055F00000000000000000000000000000000000AB
:10560000000000F00000F00000F0000000000000CA
:105610000000000000000000E00001C00001800068
:1056200001800003000002000000000000000000F4
:10563000000000000000000000000000000000006A
:1056400000000000001C00003C0000F00003C0004F
:105650000F00003C0000F000003C00000F000003C1
:10566000C00000F000003C00001C00000000000032
:10567000000000000000000000000000000000002A
:10568000000000000000000000000000000000001A
:1056900000000000007FFC007FFC00000000000014
:1056A000007FFC007FFC0000000000000000000004
:1056B00000000000000000000000000000000000EA
:1056C00000000000000000000000000000000000DA
:1056D000000000007000007800001E00000780003D
:1056E00001E000007800001E0000780001E00007E3
:1056F00080001E0000780000700000000000000024
:105700000000000000000000000000000000000099
:1057100000000000000000000007C0000FE00018BB
:10572000700018300018300000700000E00003C066
:1057300000038000030000000000000000070000DC
:105740000700000000000000000000000000000052
:10575000000000000000000000000000000003E066
:105760000007F0000E38000C180018780018F80038
:1057700019D80019980019980019980018F80018FD
:1057800078001800000C00000E180007F80003E075
:105790000000000000000000000000000000000009
:1057A0000000000000000000001F80001FC000017A
:1057B000C0000360000360000630000630000C30BB
:1057C000000FF8001FF800180C00300C00FC7F00E0
:1057D000FC7F00000000000000000000000000004E
:1057E00000000000000000000000000000000000B9
:1057F000007FE0007FF0001838001818001818002B
:105800001838001FF0001FF800181C00180C0018B2
:105810000C00180C007FF8007FF000000000000072
:105820000000000000000000000000000000000078
:1058300000000000000000000003EC000FFC001C52
:105840001C00180C00300C0030000030000030004C
:1058500000300000300000180C001C1C000FF80085
:1058600003F0000000000000000000000000000045
:105870000000000000000000000000000000000028
:10588000007FC0007FF000183800181800180C00C6
:10589000180C00180C00180C00180C00180C00183C
:1058A00018001838007FF0007FE0000000000000C2
:1058B00000000000000000000000000000000000E8
:1058C0000000000000000000007FF8007FF80018D2
:1058D00018001818001998001980001F80001F80F8
:1058E000001980001998001818001818007FF80097
:1058F0007FF8000000000000000000000000000031
:105900000000000000000000000000000000000097
:10591000003FFC003FFC000C0C000C0C000CCC0009
:105920000CC0000FC0000FC0000CC0000CC0000C69
:1059300000000C00003FC0003FC00000000000005D
:105940000000000000000000000000000000000057
:1059500000000000000000000003EC000FFC001C31
:105960001C00180C00300C0030000030000030FE2D
:105970000030FE00300C00380C001C1C000FFC0036
:1059800003F0000000000000000000000000000024
:105990000000000000000000000000000000000007
:1059A000007E7E007E7E001818001818001818006F
:1059B0001818001FF8001FF8001818001818001811
:1059C00018001818007E7E007E7E00000000000097
:1059D00000000000000000000000000000000000C7
:1059E0000000000000000000001FF8001FF8000188
:1059F00080000180000180000180000180000180A2
:105A0000000180000180000180000180001FF8007B
:105A10001FF800000000000000000000000000006F
:105A20000000000000000000000000000000000076
:105A30000007FE0007FE00003000003000003000CC
:105A400000300000300030300030300030300030A6
:105A500030003060003FE0000F80000000000000D8
:105A60000000000000000000000000000000000036
:105A70000000000000000000007F3E007F3E001894
:105A8000300018600018C0001980001B80001FC083
:105A9000001CE0001870001830001838007F1F004C
:105AA0007F1F000000000000000000000000000058
:105AB00000000000000000000000000000000000E6
:105AC000007F80007F80000C00000C00000C0000B4
:105AD0000C00000C00000C00000C0C000C0C000C66
